:020000040800F2
:10000000D8220020C1020008C90200084D3B0008A8
:10001000CD020008CF020008D10200080000000055
:10002000000000000000000000000000D3020008F3
:10003000D502000800000000D7020008C5760008BD
:10004000DB020008DB020008DB020008DB0200081C
:10005000DB020008DB020008DB020008DB0200080C
:10006000DB020008DB020008DB020008DB020008FC
:10007000DB020008DB020008DB020008DB020008EC
:10008000DB02000800000000F1070008DB020008A6
:10009000DB020008DB020008DB020008DB020008CC
:1000A000FD76000841770008DB020008DB0200084B
:1000B000DB020008DB020008DB020008DB020008AC
:1000C000DB020008DB020008DB020008DB0200089C
:1000D000DB020008DB020008E1850008DB02000803
:1000E000310E0008DB020008DB020008DB0200081A
:1000F000DB020008DB020008DB0200080000000051
:1001000000000000DB02000800000000DB02000825
:10011000DB02000800000000DB020008DB02000830
:10012000DB020008110E0008DB020008DB020008F9
:10013000DB0200080000000000000000DB020008F5
:10014000DB020008DB0200080000000000000000E5
:10015000000000000000000000000000000000009F
:10016000000000000000000000000000DB020008AA
:10017000DB0200080000000000000000000000009A
:1001800000000000DB02000800000000000000008A
:10019000000000000000000000000000000000005F
:1001A0000000000000000000DB020008DB02000885
:1001B000DB020008DB020008DB0200080000000090
:1001C00000000000DB02000800000000000000004A
:1001D000DB020008DB02000800F002F800F060F823
:1001E0000AA090E8000C82448344AAF10107DA4592
:1001F00001D100F055F8AFF2090EBAE80F0013F084
:10020000010F18BFFB1A43F0010318478894000040
:10021000A89400000A444FF0000C10F8013B13F0C2
:10022000070408BF10F8014B1D1108BF10F8015B4F
:10023000641E05D010F8016B641E01F8016BF9D142
:1002400013F0080F1EBF10F8014BAD1C0C1B09D199
:100250006D1E58BF01F801CBFAD505E014F8016B0B
:1002600001F8016B6D1EF9D59142D6D3704700009D
:100270000023002400250026103A28BF78C1FBD8AF
:10028000520728BF30C148BF0B6070471FB509F047
:100290008BF89DE8030000F097F91FBD10B510BD65
:1002A00000F024FA1146FFF7F1FF08F07BFB00F0A5
:1002B00042FA03B4FFF7F2FF03BC00F073FA000048
:1002C0000948804709480047FEE7FEE7FEE7FEE7EA
:1002D000FEE7FEE7FEE7FEE7FEE7FEE70448054926
:1002E000054A064B70470000ED760008D90100086A
:1002F000D81C0020D8220020D81E0020D81E0020A4
:1003000070B5064600F044F9056806F10B0020F0D0
:100310000704B4429CBF002070BD2B466A68BAB186
:100320001068A04210D304F1080188423CBF506815
:10033000586007D35168101941601168091B0160AA
:1003400058601460101D70BD13465268002AE7D132
:100350002146284600F024F90028DED170BD53EA7A
:10036000020C00F069802DE9F04B4FF00006002BE5
:100370001FBFB3FA83F503FA05F424FA05F65E40CD
:1003800012BF1643B2FA82F502FA05F4C5F1200550
:100390001EBF22FA05FC44EA0C04203556EA044C40
:1003A0004FEA144418BF641C4FF000084FF00009D6
:1003B000904271EB030C39D3002919BFB1FA81F7D0
:1003C00001FA07F6B0FA80F700FA07F6C7F120073E
:1003D0001EBF20FA07FC46EA0C062037B6FBF4FCE9
:1003E000A7EB0507103F07F01F0BCBF120060CFA17
:1003F0000BFB2CFA06F644BFB3460026202FA4BF01
:100400005E464FF0000B5BEA060C08BF4FF0010B95
:1004100019EB0B09ABFB027C48EB0608C01B06FB83
:1004200002CC0BFB03CC71EB0C01C1E70B4602467F
:1004300041464846BDE8F08B13B54FF000004FF041
:100440000001AFF30080BDE81C407047032A40F272
:10045000308010F0030C00F0158011F8013BBCF166
:10046000020F624498BF11F801CB00F8013B38BF7E
:1004700011F8013BA2F1040298BF00F801CB38BF8C
:1004800000F8013B11F0030300F02580083AC0F0AA
:10049000088051F8043B083A51F804CBA0E8081052
:1004A000F5E7121D5CBF51F8043B40F8043BAFF385
:1004B0000080D20724BF11F8013B11F801CB48BFDF
:1004C00011F8012B24BF00F8013B00F801CB48BF15
:1004D00000F8012B704710B5203AC0F00B80B1E84E
:1004E0001850203AA0E81850B1E81850A0E8185069
:1004F000BFF4F5AF5FEA027C24BFB1E81850A0E872
:10050000185044BF18C918C0BDE810405FEA827C8B
:1005100024BF51F8043B40F8043B08BF7047D207A2
:1005200028BF31F8023B48BF11F8012B28BF20F843
:10053000023B48BF00F8012B70474FF0000200B5A6
:10054000134694469646203922BFA0E80C50A0E8F6
:100550000C50B1F12001BFF4F7AF090728BFA0E8A4
:100560000C5048BF0CC05DF804EB890028BF40F870
:10057000042B08BF704748BF20F8022B11F0804FB2
:1005800018BF00F8012B7047704770477047000094
:10059000004870477C1C00207047704770477047C8
:1005A00038B504460A4600206946AFF300800028AB
:1005B00008BF38BD02460099204600F075F80120BA
:1005C00038BD012000F08AB8F8B5AFF300800546C9
:1005D00000200C46102000BF0646A819A0420DD9E5
:1005E000324669460020AFF30080070008BF00F0E4
:1005F00075F80098A04218BF0546C419FFF7C8FF58
:1006000005600746F01D20F007004619284600F057
:100610000AF8B44208BFF8BDA21B31463868BDE8ED
:10062000F84000F041B800210160C0E901107047B6
:100630001020704770B50446051FFFF7A9FF00683A
:10064000002C14BF446870BD002C18BFAC423CBFE6
:1006500020466468F8D301680A18AA4218BF4560AA
:1006600003D12A6805461144016028684119A14256
:100670001CBF6C6070BD61686960216808442860B7
:1006800070BD10B500F00CF8006810BD10B5044640
:1006900000F006F8046010BD00487047741C00208C
:1006A00000487047741C0020034640688C460028B0
:1006B00018BF88423CBF03464068F8D31868184406
:1006C000884207D00CF1030020F00700001D411AFA
:1006D000521A0146081D0A60FFF7ACBF10B500F0C2
:1006E00039F8BDE8104000F02FB870477546FFF7A5
:1006F000D3FFAE4605006946534620F00700854605
:1007000018B020B5FFF7EAFDBDE820404FF0000625
:100710004FF000074FF000084FF0000B21F00701E9
:10072000AC46ACE8C009ACE8C009ACE8C009ACE82C
:10073000C0098D46704710B50446AFF300802046CF
:10074000BDE81040FFF7B5BD002801D000F02AB881
:100750007047000010B5012805D0002103A000F06B
:1007600027F8012010BD09A1F8E7000053494752BE
:10077000544D454D3A204F7574206F662068656171
:1007800070206D656D6F7279000000003A20486539
:100790006170206D656D6F727920636F7272757014
:1007A0007465640001491820ABBEFEE72600020014
:1007B00070B505460C460A2000E06D1C00F011F8EB
:1007C00035B128780028F8D102E0641C00F009F85F
:1007D00014B120780028F8D1BDE870400A20AFF3AA
:1007E000008008B569468DF800000320ABBE08BD47
:1007F0004FF0A0414020086007F006B92DE9F00352
:10080000027FC169D409427F90F86CC04FF00108A3
:10081000C1F3021902F03F06C1F38635C1F3465712
:10082000A44528BFA44680F86CC090F86D10B14272
:1008300028BF314680F86D1090F86E20AA4228BF7C
:100840002A4680F86E2090F86F30BB4228BF3B46A6
:1008500080F86F30644509D18E4298BFAA4205D115
:10086000BB4204BF90F87000814501D04FF00008F2
:100870004046BDE8F0037047002180F86510D0F8CD
:1008800014C000F11C01436D0422604618470000AB
:1008900070B5044690F865100020012531B101299A
:1008A00004BF84F8650084F8615070BDE0691E499A
:1008B000C2B2C0F307238A5C5A40C0F307438A5C84
:1008C0005A408A5C82EA1060085C002818BF042045
:1008D00003D000BF84F8620070BD207F00F00F00DD
:1008E000A066052818BF06281AD009281CBF84F85E
:1008F000625070BDA08B0009A4F85C0010D0B4F861
:100900005E10884288BF0220E4D894F86C1000EB97
:100910004102D4E90501636D984784F8655070BDC4
:1009200084F8615070BD00002D95000870B5044634
:1009300090F82400002503280EBF84F82450A06CF2
:10094000857194F82E00032602281BD094F8240009
:10095000022822D072B6606C002808BFA5642DD092
:10096000A0648671606CA36D828801686069984795
:1009700094F8360002281EBF94F83E0002286564F1
:1009800017D01BE004F12800A064A36DA28DA16A1A
:100990006069984784F82E6070BD04F12000A0645F
:1009A000A36D042204F120016069984784F8246053
:1009B00070BD616CC1EB44006830606462B670BDAC
:1009C0002DE9F04104460025C0690D8094F86120AE
:1009D0002E46002A71D084F8616094F864300127B3
:1009E0002BB13022012B3DD0022B67D0BEE0A16E8F
:1009F000052902D0062917D0B8E02046FFF7FEFEF1
:100A000078B394F86E00400100F12001A18194F8C0
:100A10006F008101E18194F86D0040012030A4F85D
:100A20005E0084F8647029E094F8603094F863C044
:100A300003F0010346EA8316C0F30F310CF00F0CEC
:100A400046EAC31343EA0C2343EA013141F00601AD
:100A50002162204604F120020423002100F0A6F8C0
:100A600084E00BE0A16E052902D0062927D07DE0A5
:100A70002046FFF7C3FE08B984F8646094F870203C
:100A800094F86C30120142EAC31294F86D3004F10C
:100A9000200142EA032294F86E30204642EA833273
:100AA00094F86F3042EA435242F0050222620A464D
:100AB0000423002100F07AF858E05EE01FE094F88B
:100AC00060C094F863600CF0010C42EA8C12C0F331
:100AD0000F3106F00F0642EACC1242EA062242EA41
:100AE000013141F0060121622046042304F1200275
:100AF000002100F05BF8022084F8640036E0A06E6C
:100B0000052804D006280BD0092825D02EE0204641
:100B1000FFF774FE002818BF84F86470AED1ABE70D
:100B200094F860C094F863600CF0010C42EA8C12F7
:100B3000617F06F00F0642EACC1242EA062242EA40
:100B4000013141F0060121622046042304F1200214
:100B5000002100F02BF809E094F86000401C84F8B4
:100B600060002774B4F85C000880A569636D0422F6
:100B700004F11C016069984714E094F8621089B18F
:100B80000B0243EA014141F00F012162204604F1CA
:100B900020020423002100F009F884F86260216D2E
:100BA000606988472846BDE8F08100002DE9F041E2
:100BB0001568944625F070422F4ED7B2C2F307282D
:100BC000F75D002487EA0807C2F30748F75D87EA64
:100BD0000807F65D86EA1262284EB25C45EA0272A8
:100BE000CCF8002072B6826C42B162B602220929AA
:100BF0001FD00A292CD0002933D03AE0032209293A
:100C000012D00A2907BF80F82E2000F1280180F8B1
:100C1000242000F12001816462B61A464669856D80
:100C200061463046A84724E0016C8A71016C8164FA
:100C3000F2E7016C0D68654518BF0324D0F844C085
:100C4000BCF1000F08BF41648A71006C838010E022
:100C500090F82E10012904BF80F82E20838507D13B
:100C600007E090F82410002908BF80F8242000D065
:100C700003242046BDE8F0812D9500082D9600083C
:100C800001239C460A2A09D090F83620012A0FD960
:100C900090F83E20012A14D900231AE090F82E2063
:100CA000012AF9D8826A121D0A6080F82EC010E06D
:100CB00080F836C000F130020264006B001D08604D
:100CC00007E080F83EC000F138020264806B001D2E
:100CD00008601846704730B49C4690F86430022B88
:100CE0001EBF022030BC70470C1F4CEA021341F8B3
:100CF000043C90F86C30012B06D1CA238B5411446C
:100D0000FE234B70911C8AB2BCF10A0F06D0111D54
:100D100022468BB230BC6146FFF748BF017C0029F8
:100D20001ABF002101740120F1D130BC704710B509
:100D300004464069E16C8847002084F8640084F828
:100D4000650084F8600004F11C01636D6069BDE812
:100D50001040042218472DE9F041B0F800C00246C7
:100D60000D460FB217FB07F30E1416FB06F054885E
:100D70000CFB0CF1034404FB04F28B4216DD9042A1
:100D800007DC081A03F0EAF8002FB8BF40423446E7
:100D900008E0002EB8BF6442881A03F0DFF8002F85
:100DA000B8BF404260F30F0564F31F452846BDE815
:100DB000F08100000068084A06490088136800F5C1
:100DC00000406FF30F1318431060486840F00100B3
:100DD00048607047000800500C08005000EB4100CC
:100DE0000089704710B5014640F2D17005F082F8D5
:100DF0000248016841F00101016010BD0008005087
:100E000000EB410300EB81011A81104605F072B836
:100E10000548016811F0200F08BF7047202141608C
:100E20000248FFF735BD000000040240980500208D
:100E30000548016811F4005F08BF70474FF4005186
:100E4000016007F0C1BB00001404014072B6FEE768
:100E500000EB400101EB001210B5084901EB420420
:100E600094F82410002918BF10BD054951F820003E
:100E700006F047F9E083208210BD0000F81B002037
:100E80007005002010B5044600EB440000EB04128E
:100E90001248002100EB4202114811605160D160FC
:100EA0001161D183C2F81610C2F81A10118450F8DB
:100EB000240003F033FC0B48002150F8240003F019
:100EC0002DFC094850F8240006F043F9074850F873
:100ED0002400BDE8104003F0E7BD0000F81B00202F
:100EE00074050020780500207005002058060020B9
:100EF000704700002DE9F00785B00023019390F8BA
:100F000058409C461A46012C01BF022005B0BDE89E
:100F1000F0077047012480F858404669FD4D002EC7
:100F20001CBF0E6A012E02D0876EDFB129E04A682D
:100F3000092A3BD18E6A4FF47852002E04BF0E6806
:100F400002EA564207D00F6806F07C0602EA5742D2
:100F50003243CE6A32430668F76C3D401543F56470
:100F6000426623E0C0E919C68A6A002A04BF0A6AF9
:100F7000521E06D00E6A02F07C02761E3243CE6A02
:100F800032430E680F79C6F3846607F01F07BE4030
:100F90003243866E761E8666476E47EA02024266D6
:100FA00004D10668F76C3D402A43F26402689568F4
:100FB00015F0080F0AD191F82550B5B1D56891F810
:100FC000266025F4401545EA4655D56002689568C7
:100FD0009668C5F38005C6F3C00655EA06074FF0CC
:100FE00004054FF007060CD07DE091F8265091F8EB
:100FF00024606D0545EA0655D66826F4401635434B
:10100000E3E78F6A002F1CBFCF6A002F91F825708D
:1010100073D0012F1CBFD76827F0007777D0D76037
:1010200091F83020012A79D00268176927F0020769
:1010300017618A68B2F1004F7DD00F68D0F8008048
:1010400005EAD759C844D8F81490C7F3045706FAEC
:1010500007FA29EA0A09BA4049EA0202C8F8142044
:101060000268576927F00047576102684F69D2F854
:101070000C80C8F3C1084FEA480807FA08F80F695E
:10108000042F72D002EB8702D1F80090176EDFF8C0
:1010900088A209F0F84907EA0A0749EA080847EA76
:1010A000080747F0004717660268D1F810808F697B
:1010B00002EB8802D2F8608028F0807848EA0707BF
:1010C00017660F7FD0F800800A69012F0CBF4FF020
:1010D0000077002708EB8202D2F8608028F00078C1
:1010E00048EA070717660268976817F0010F40F093
:1010F0006781C2E001E00AE010E0012FD7680EBF6F
:1011000047F0007727F00077D76089D187E7C26D75
:1011100042F02002C265012382E70CE0D1E90D27ED
:1011200017430268D2F8108028F4FF7848F00208CC
:1011300047EA08077CE70A68076805EAD2594F447E
:101140004FF00008D7F81490C2F3045206FA02FADE
:1011500029EA0A0908FA02F249EA02027A610268F7
:10116000576947F000477FE7FFE7176E00277F03C7
:101170007F0B176E07F0F8471ABF97FAA7F7B7FA71
:1011800087F84FEA97680F68C7F31209B9F1000FA3
:101190000EBFC7F3846797FAA7F7B7FA87F7B84582
:1011A00003D1176E27F0004717660268576E0027B5
:1011B000121D7F037F0B176E07F0F8470EBF4FEA33
:1011C000976897FAA7F7B7FA87F80F68C7F3120975
:1011D000B9F1000F0EBFC7F3846797FAA7F7B7FA04
:1011E00087F7B84503D1176E27F0004717660268E6
:1011F000976E002708327F037F0B176E07F0F847C2
:101200000EBF4FEA976897FAA7F7B7FA87F80F6803
:10121000C7F31209B9F1000F0EBFC7F3846797FA3D
:10122000A7F7B7FA87F7B84503D1176E27F000473D
:1012300017660268D76E00270C327F037F0B176E8C
:1012400007F0F8470EBF4FEA976897FAA7F7B7FA83
:1012500087F80F68C7F31209B9F1000F0EBFC7F383
:10126000846797FAA7F7B7FA87F7B84504BF176EF0
:1012700027F000477FF437AF34E7DFF8A090D1F8CC
:101280000C800F68C845D2F8B080C7F3120714BFAE
:1012900028EA070748EA0707C2F8B070CA684A4553
:1012A0007ED10A680768C2F31208B8F1000F1ABFAE
:1012B00092FAA2F8B8FA88F8C2F3846808F1010833
:1012C00008F01F08B8F1090FC2F3120834D8B8F1BA
:1012D000000F1ABF92FAA2F8B8FA88F8C2F384682D
:1012E00008F1010808F01F0804FA08F80EBFC2F35D
:1012F000846492FAA2F4B4FA84F404F1010404F0D0
:101300001F0448EA84640CBFC2F3846292FAA2F21A
:1013100006E000000040100400F0FF0300007F40E2
:1013200018BFB2FA82F202F1010202F01F0202EBD0
:10133000420244EA025430E0B8F1000F0EBFC2F39B
:10134000846892FAA2F8B8FA88F808F1010808F05F
:101350001F0804FA08F80EBFC2F3846492FAA2F4DC
:10136000B4FA84F404F1010404F01F0448EA84642C
:101370000EBFC2F3846292FAA2F2B2FA82F202F1D2
:10138000010202F01F02DFF82C8102EB420208EB9F
:10139000025244EA020242F0007405EAD45200E02C
:1013A0000EE03A44D1F808805569C4F3045406FAB3
:1013B00004F625EA060508FA04F445EA0404546133
:1013C0000C683D490C4268D04FF0A041D1F8081399
:1013D0003A4A04F1705501F0E07115F55F051ABF46
:1013E000374DAC4211F4000F11D0364D04F1605668
:1013F00016F52E0608BF11F0807F39D004F1505643
:1014000016F5F80608BF11F4800F3CD045E00468DB
:10141000B4F1A04F41D1946841F4000124F0E0748C
:10142000214391602849294A0968B1FBF2F1891CDE
:1014300001EB41018900019100912ED0B1F1004FE3
:1014400032D20029D8BF002105DD11F0010102D000
:10145000019A521E0192009A491C521C91421CDAB8
:10146000019C891C641E641E01949142F8DB14E007
:101470000468AC4211D0946841F0807124F0E074AB
:101480002143916009E00468AC4206D0946841F4BD
:10149000800124F0E0742143916080F858C005B0C9
:1014A0001846BDE8F00770470199491E0191FCD12B
:1014B000F3E70000000020FE000008800003005059
:1014C0001000C090000100509C060020400D030059
:1014D00070B490F8582000249BB0012A01BF02206C
:1014E0001BB070BC7047012280F85820002317936E
:1014F00018930268B2F1A04F0AD0C16D41F02001EB
:10150000C16580F858301BB04FF0010070BC7047C7
:10151000DFF8ACC0CDF800C0DCF808C09268CCF3AE
:10152000800C12F0040F08BFBCF1000F0CD0C16D8D
:1015300041F02001C1654FF0010400BF80F8583030
:101540001BB0204670BC70471E4A0D684FF0A04C7F
:1015500015B3956890F8386025F4604545EA46353E
:101560004E6845EA06059560DCF80850DCF808C1CD
:1015700045EA0C0C1CF0010FE0D1D1F800C08968DD
:101580004CEA0101D2F808C02CF01F0C2CF4706C4E
:1015900041EA0C019160D1E7916821F460419160CA
:1015A000DCF80810DCF808C141EA0C0111F0010F69
:1015B00002BF916821F01F0121F47061BED1E9E7FB
:1015C00000010050000300502DE9F00785B0002312
:1015D000019390F858209C46012A01BF022005B0D3
:1015E000BDE8F0077047012480F85840026895680C
:1015F00015F0040F0BD0C16D41F02001C16501232E
:1016000080F858C005B01846BDE8F0077047D1E92A
:1016100000650C2707EA95173A44176B05F01F057C
:101620004FF01F0808FA05F8C6F3846627EA080792
:1016300006FA05F53D431563026895689668C5F39B
:101640008005C6F3C00655EA06074FF004054FF0C3
:10165000070657D18F68B7F1004F5AD0D1F80080F4
:1016600005EAD8594A44D2F81490C8F3045806FA47
:1016700008FA29EA0A0907FA08F749EA0707576149
:101680000268576927F00047576102684F69D2F82E
:101690000C80C8F3C1084FEA480807FA08F80F6938
:1016A000042F4ED002EB8702D1F80090176EDFF8BE
:1016B000CCA309F0F84907EA0A0749EA080847EA0B
:1016C000080747F00047176602680F69D1F81880CD
:1016D00002EB8702176E27F0807747EA0807176644
:1016E0000F7FD0F800800A69012F0CBF4FF0007700
:1016F000002708EB8202D2F8608028F0007848EAE0
:10170000070717660268976817F0010F7ED000F090
:101710003CB90F684FF0000805EAD7594A44D2F89F
:101720001490C7F3045706FA07FA29EA0A0908FAD7
:1017300007F749EA070757610268576947F000470A
:10174000A2E7176E00277F037F0B176E07F0F8479D
:101750001ABF97FAA7F7B7FA87F84FEA97680F68A2
:10176000C7F31209B9F1000F0EBFC7F3846797FAE8
:10177000A7F7B7FA87F7B84503D1176E27F00047E8
:1017800017660268576E0027121D7F037F0B176EC6
:1017900007F0F8470EBF4FEA976897FAA7F7B7FA2E
:1017A00087F80F68C7F31209B9F1000F0EBFC7F32E
:1017B000846797FAA7F7B7FA87F7B84503D1176E8A
:1017C00027F0004717660268976E002708327F03EC
:1017D0007F0B176E07F0F8470EBF4FEA976897FA2E
:1017E000A7F7B7FA87F80F68C7F31209B9F1000F26
:1017F0000EBFC7F3846797FAA7F7B7FA87F7B8451C
:1018000003D1176E27F00047176600E023E0026857
:10181000D76E00270C327F037F0B176E07F0F84757
:101820000EBF4FEA976897FAA7F7B7FA87F80F68DD
:10183000C7F31209B9F1000F0EBFC7F3846797FA17
:10184000A7F7B7FA87F7B84504BF176E27F0004728
:101850007FF458AF55E7DFF82892D1F80C800F6875
:10186000C845D2F8B080C7F3120714BF28EA0707AB
:1018700048EA0707C2F8B070CA684A457DD10A68CD
:101880000768C2F31208B8F1000F1ABF92FAA2F863
:10189000B8FA88F8C2F3846808F1010808F01F0854
:1018A000B8F1090FC2F312082BD8B8F1000F1ABF14
:1018B00092FAA2F8B8FA88F8C2F3846808F101082D
:1018C00008F01F0804FA08F80EBFC2F3846492FA05
:1018D000A2F4B4FA84F404F1010404F01F0448EA09
:1018E00084640EBFC2F3846292FAA2F2B2FA82F268
:1018F00002F1010202F01F0202EB420244EA02522C
:1019000030E0B8F1000F0EBFC2F3846892FAA2F87B
:10191000B8FA88F808F1010808F01F0804FA08F876
:101920000EBFC2F3846492FAA2F4B4FA84F404F110
:10193000010404F01F0448EA84640EBFC2F3846209
:1019400092FAA2F2B2FA82F202F1010202F01F024E
:10195000DFF8308102EB420208EB025244EA020255
:1019600042F0007205EAD2543C44D1F8088065691F
:10197000C2F3045206FA02F600E006E025EA060584
:1019800008FA02F245EA0202626109683E4A11421F
:101990003FF436AE4FF0A042D2F8082301F1705563
:1019A00002F0E074394A15F55F051ABF384DA942B7
:1019B00014F4000F1DD0374D01F1605616F52E06B8
:1019C00008BF14F0807F48D001F1505616F5F80694
:1019D00008BF14F4800F7FF413AE0168A9423FF4EE
:1019E0000FAE44F48001946824F0E07421439160C8
:1019F00006E60168B1F1A04F7FF402AE44F40001A5
:101A0000946824F0E074214391602349234A0968D3
:101A1000B1FBF2F1491C01EB4101890001910091F8
:101A20003FF4EEADB1F1004F23D20029D8BF002121
:101A300005DD11F0010102D0019A521E0192009AB7
:101A4000491C541CA142BFF6DBAD019A891C521EF1
:101A5000521E0192A142F8DBD2E50168A9423FF48F
:101A6000CFAD44F08071946824F0E074214391601C
:101A7000C6E50199491E0191FCD1C1E500F0FF03C3
:101A800000007F40000020FE00000880000300509E
:101A90001000C090000100509C060020400D030083
:101AA00070B584B04FF0000504002E46029502BFC9
:101AB000012004B070BDE06D28B9204600F010F997
:101AC000266684F8586020688168C1F3407129B1A6
:101AD000816821F03F0121F0204181602068816808
:101AE000C1F3007159BB816821F03F0121F0004131
:101AF00041F080518160754875490068B0FBF1F094
:101B00004000801C0290009019D0B0F1004F80F08E
:101B1000D7800028D8BF002005DD10F0010002D0DA
:101B20000299491E02910099401C491C884206DA1C
:101B3000029A801C521E521E02928842F8DB2068D4
:101B40008168C1F3007141B9E16D41F01001E165B7
:101B5000216E41F00101216601258168E26DC1F32A
:101B6000800112F0100F08BF002908D0E06D40F08E
:101B70001000E0654FF0010504B0284670BDE16D2E
:101B800021F4807141F00201E165806810F0010FDD
:101B900011D14FF0A0408168D0F8080141EA00005F
:101BA00010F0010F07D14B486168826822F47C1263
:101BB00042EA01018160E168E06B627F40EA010076
:101BC000A16841EA423140EA010094F8241040EA59
:101BD0000140012904D1218D3F4A02EB41410843D4
:101BE000E16A21B101F47871226B08431043216846
:101BF000CA683A4B1A401043C86020680169626B9A
:101C000021F0406111430161206881688268C1F35D
:101C10008001C2F3C00211432FD1217F94F83820F4
:101C2000890341EA4201C26822F0020222F48042A2
:101C30001143C16020690028206801690AD041F47D
:101C4000803101612068D0F8C01022696FF30D0166
:101C5000114307E021F4803101612068D0F8C01001
:101C60006FF30D01C0F8C01094F8400001280CD0AB
:101C70002068016921F00101016160690128206883
:101C8000016B21F00F0113D10FE0D4E911010843DA
:101C9000D4E91312114340EA0102206801696FF38D
:101CA0008A01114341F00101E6E7226A521E114305
:101CB0000163E06D20F0020040F00100E0655BE7A9
:101CC0000298401E0290FCD139E700009C060020DB
:101CD000400D0300000300500000FEFF0740F0FF2E
:101CE0002DE9F04397B00025044600950195029533
:101CF0000395442105A80495FEF71FFC4FF400410D
:101D000020684A03DFF8309103260F11DFF82C8199
:101D10004B4CB0F1A04F18D0A0F1A043B3F58073A5
:101D20001CBF17B0BDE8F08305A81492059100F020
:101D3000A3FC002818BFFFF789F8D9F80000401C61
:101D4000C9F80000012843D13AE0149205A8059192
:101D500000F092FC002818BFFFF778F8D9F80000CF
:101D6000401CC9F80000012807D1E06C40F4005085
:101D7000E064E06C00F400501690E06C40F001006C
:101D8000E064E06C00F001001690E06C40F00200AE
:101D9000E064E06C694600F0020016900220CDE994
:101DA000000602954FF0904000F056FA0097CDE9FA
:101DB00001656946404600F04FFA17B0BDE8F08370
:101DC000E06C40F40050E064E06C00F400501690C9
:101DD000E06C40F00100E064E06C00F0010016905F
:101DE000E06C40F00400E064E06C00F00400169049
:101DF000E06C40F00200E064E06C694600F0020034
:101E000016908020CDE9000602954FF0904000F03A
:101E100023FA3020CDE9000669460295094800F012
:101E20001BFA0097CDE901656946404600F014FAB7
:101E300017B0BDE8F08300008C06002000040048C5
:101E40000010024000080048002804BF012070472D
:101E500070B5044690F82100002520B984F8205080
:101E6000204600F00BF865626560A560E5602561BD
:101E70000120656184F82100002070BD006881B0F8
:101E8000A0F18041B1F503311CBF01B07047054896
:101E9000816C41F008018164806C00F008000090C2
:101EA00001B07047001002402DE9F0470446407928
:101EB00092460D46012804BF0220BDE8F0874FF08E
:101EC000010884F8058002202071A8680AF0100635
:101ED00004284ED100F0B8FA074620684FF00309F5
:101EE000BAF1000F406B11D010F0004F28D000BFA6
:101EF00000F0AAFAC01B01281DD9206940F0080093
:101F0000206184F804900320BDE8F08710F4004FAE
:101F10000AD000BF00F098FAC01B0128EDD8206855
:101F2000406B10F4004FF5D1012000F081F92168D9
:101F3000686A08640AE02068406B10F0004FD7D14F
:101F4000012000F075F92168686A48642068816C96
:101F500040F2FF32B2409143AA6AB2401143816419
:101F60002068C16CFF22B2409143EA6AB24011433B
:101F7000C164E869012808D12068816B1F22B24042
:101F800091432A6AB240114381632068C06B0721E4
:101F9000B14020EA0101A869012805D002281ABF32
:101FA00068690028012001D04FF000006B69AA6821
:101FB00042EA030242EA00024FF4807000FA06F09F
:101FC00021EA0000297901290CBF4FF4807100211A
:101FD00011434FF40072B24090436A79012A0CBF5A
:101FE0004FF40072002242EA010920F440472868B9
:101FF000022818BF074332D0216809FA06F0384397
:10200000C863206801684FF48042B2409143016088
:102010002168086840F6FE72B2409043EA68B24018
:102020001043086020680168C022B24091430160FB
:10203000287B297CC0F3830001F03C0140EA811039
:1020400021680A6E40F60F73B3409A43B0401043C4
:10205000086684F8048000206071BDE8F08700F015
:1020600079FD0649884288BF47F40047C4D804492F
:10207000884288BF47F48047BEE7000000688909AE
:1020800000B4C404002804BF0120704770B50446A2
:102090000079002518B96571204600F007F8022084
:1020A0002071256101202071002070BD00B587B02E
:1020B0000021009101910291039104910068A0F127
:1020C000A041B1F500611CBF07B000BD0D48C16C57
:1020D00041F48031C164C16C01F480310591C16C5F
:1020E00041F00101C164C06C694600F00100059037
:1020F00010200090032001904FF0904000F0ACF8C9
:1021000007B000BD0010024070B4002802BF0120DB
:1021100070BC7047DFF8ECC001683B4A614508D2EB
:102120003A4B0B44A2FB03431B099B004364384B0F
:1021300007E0384B0B44A2FB03431B099B0043649D
:10214000354B0364022380F825300B68D0E9024543
:102150002C43D0E9045635432C4385696FF30E13A5
:102160002C43C5692C43056A2C4323430B60036849
:10217000634534BF29492A49DBB2083BA2FB03323D
:10218000436C23F003030B442649C0E91231C2F328
:102190000411012202FA01F10165D0F808C0002102
:1021A000BCF5804F08BF416090F804C0C3F800C080
:1021B000D0E9133CC3F804C04368A3F1010CBCF19F
:1021C000030F14D8DFF860C0DBB20CEB830C5B1E8E
:1021D00003F01F03154C02FA03F3C365C0E915C4ED
:1021E000CCF80010D0E9163CC3F804C002E0416509
:1021F0008165C165C16380F8252080F8241070BC1A
:102200000020704708040240CDCCCCCCF8FFFDBFC5
:1022100000000240F8FBFDBF00040240000802403D
:102220002008024080080240FC08024040090240A9
:1022300070B5044600F008F90546B4F1FF3F02D03E
:1022400004484068044400F0FFF8401BA042FAD361
:1022500070BD0000900600200B680022002B08BF14
:1022600070472DE9F84F724D704C4FF001094FF057
:10227000030C4FF00F0A05F1040E00BF0B6809FABA
:1022800002F73B4000F0CA800E7906F00306012EEB
:1022900018BF022E19D1D0F808804FEA42060CFA76
:1022A00006FB28EA0B08D1F80CB00BFA06F646EA52
:1022B00008068660466826EA07060F79C7F3001706
:1022C00007FA02F747EA060646604E683CEA060649
:1022D0000BD0C76856000CFA06F827EA0807D1F8B1
:1022E000088008FA06F63E43C6600E7906F003063B
:1022F000022E11D1D60800EB8607D7F820805607AA
:10230000F60E0AFA06FB28EA0B08D1F810B00BFA11
:1023100006F646EA08063E62076856000CFA06F81A
:1023200027EA080791F8048008F0030808FA06F67F
:102330003E4306604E6816F4403F6FD0266E46F06E
:1023400001062666266E06F00106009622F00306B8
:1023500006F1804707F58037D7F808809607360FD3
:102360000AFA06FB28EA0B08B0F1904F08BF4FF0BD
:10237000000B28D0A0F1904BBBF5806B08BF4FF04D
:10238000010B20D0A0F1904BBBF5006B08BF4FF0C4
:10239000020B18D0A0F1904BBBF5406B08BF4FF07B
:1023A000030B10D0A0F1904BBBF5805B08BF4FF042
:1023B000040B08D0A0F1904BBBF5A05B0CBF4FF015
:1023C000050B4FF0060B0BFA06F646EA0806BE6050
:1023D0002E684F689E4317F4801F18BF1E432E605F
:1023E000DEF800604F689E4317F4001F18BF1E43BD
:1023F000CEF800600F4F3E68D1F804809E4318F479
:10240000003F18BF1E433E600B4F3E68D1F804806A
:102410009E4318F4803F18BF1E433E600B68521C59
:10242000D3407FF42BAFBDE8F88F000000100240CE
:10243000080401400404014000040140002A14BFC4
:102440008161816270470000014880687047000028
:1024500090060020024881684268114481607047FC
:102460009006002010B50024032000F08BF8042013
:1024700000F008F8002814BF012400F025F82046D9
:1024800010BD000070B50E4E05460024706898B16E
:102490004FF47A71B1FBF0F00A490968B1FBF0F032
:1024A00000F020FE40B9102D06D200222946501E11
:1024B00000F036F8356000E00124204670BD0000D1
:1024C000900600209C0600200C4808B5016E41F0E3
:1024D00001010166016E01F001010091816D41F081
:1024E00080518165806D00F080500090042000F0E4
:1024F00049F8BDE8084000F0B7B8000000100240FD
:102500000028B8BF704700F01F01012202FA01F154
:102510004009800000F1E020C0F800117047000081
:10252000174B10B41B68C3F30223C3F1070CBCF1B3
:10253000040F88BF4FF0040C1C1D072C34BF002370
:10254000DB1E012404FA0CFCACF1010C0CEA0101C5
:10255000994004FA03F35B1E1A40114300284FEA26
:102560000111A1BF00F1E02080F8001410BC7047F9
:1025700000F00F0000F1E02080F8141D10BC70473F
:102580000CED00E0074900F007000A684FF6FF0372
:102590001A4042EA002040F0FD7040F08060086080
:1025A000704700000CED00E02C4932222C4B0968EA
:1025B0004A432C4950B1B0F5007F08682BD020F475
:1025C000C06040F48060086000207047086800F434
:1025D000C060B0F5806FD1F8800020F4807002D028
:1025E000C1F88000F0E7C1F88000086820F4C060FE
:1025F00040F400700860B2FBF3F000F101004A699A
:1026000012F4806F1CBF0028401EF8D1486910F4F6
:10261000806F20D1D8E700F4C060B0F5806FD1F8AA
:10262000800040F48070DBD1C1F88000086820F49D
:10263000C06040F400700860B2FBF3F000F10100EC
:102640004A6912F4806F1CBF0028401EF8D1486907
:1026500010F4806FB8D04FF0030070479C06002044
:1026600040420F00007000400248816841F4804100
:1026700081607047007000402DE9F843044600680F
:102680000027AC4D10F4002F6DD0A86D4FF000085E
:1026900010F0805F09D1A86D40F08050A865A86D4A
:1026A0004FF0010800F080500090DFF88C92D9F8CC
:1026B000000040F48070C9F80000FFF7C5FE064630
:1026C000D9F8000010F4807F0AD100BFFFF7BCFEEC
:1026D000801B022831D8D9F8000010F4807FF5D093
:1026E000D5F8900010F440701CBF216C814211D0CD
:1026F000D5F89000D5F8901020F4407041F4803166
:10270000C5F89010D5F8901021F48031C5F89010DC
:10271000C5F8900010F0010F16D0FFF795FE0646A1
:10272000D5F8900010F0020F08BF41F288390BD1A4
:10273000FFF78AFE801B484501D903270CE0D5F836
:10274000900010F0020FF3D0D5F89000216C20F427
:1027500040700843C5F89000B8F1000F03D0A86D91
:1027600020F08050A865207810F0010F07D0D5F830
:102770008800616820F003000843C5F888002078CD
:1027800010F0020F07D0D5F88800A16820F00C00E7
:102790000843C5F88800207810F0040F07D0D5F85A
:1027A0008800E16820F030000843C5F888002078F0
:1027B00010F0080F07D0D5F88800216920F0C0007C
:1027C0000843C5F88800207810F0200F07D0D5F80E
:1027D0008800616920F440600843C5F888002078CB
:1027E00010F0400F07D0D5F88800A16920F44050C0
:1027F0000843C5F88800207810F0800F07D0D5F87E
:102800008800E16920F440400843C5F8880020882A
:1028100010F4807F07D0D5F88800216A20F440307A
:102820000843C5F88800208810F4007F07D0D5F849
:102830008800616A20F440200843C5F88800208899
:1028400010F4806F0FD0D5F88800A16A20F44010F2
:102850000843C5F88800A06AB0F5801F03D1E86876
:1028600040F48010E860208810F4006F0FD0D5F895
:102870008800E16A20F440000843C5F88800E06A57
:10288000B0F5800F03D1E86840F48010E86020883C
:1028900010F4805F0FD0D5F88800216B20F04070D5
:1028A0000843C5F88800206BB0F1807F03D1E86849
:1028B00040F48010E860208810F4005F0FD0D5F855
:1028C0008800616B20F040600843C5F88800606BA9
:1028D000B0F1006F03D1E86840F48010E860208810
:1028E00010F4804F0FD0D5F88800A16B20F0406025
:1028F0000843C5F88800A06BB0F1006F03D1E86809
:1029000040F48010E860208810F4004F0FD0D5F814
:102910008800E16B20F040500843C5F88800E06B68
:10292000B0F1805F03D1E86840F48030E860384659
:10293000BDE8F88300100240007000402DE9F04728
:102940000E4605004FF000087ED0764F386800F044
:102950000F00864209D9386820F00F0030433860F4
:10296000386800F00F00B0426ED129686E4C11F04B
:10297000010F41F2883A66D06868DFF8B091032809
:1029800006D00228206832D010F4806F5CD031E08D
:10299000206810F0007F57D0E06800F00302E06884
:1029A000C0F30310401C032A19D0614AB2FBF0F0B7
:1029B000E268C2F306225043E268C2F34162521C4D
:1029C0005200B0FBF2F0484520D9A06810F0F00F9B
:1029D00014D011F0020F19D0A86878B116E0554A4A
:1029E000B2FBF0F0E268C2F306225043E4E710F4D1
:1029F000003F60D000F0D8F8484507D9A06820F023
:102A0000F00040F08000A0604FF08008A068696886
:102A100020F003000843A060FFF716FD8146A06880
:102A2000696800F00C00B0EB810F0CD0FFF70CFDD3
:102A3000A0EB090050453BD8A068696800F00C0085
:102A4000B0EB810FF2D100E035E0286810F0020F02
:102A500034D010F0040F03D0A06840F4E060A06010
:102A6000287810F0080F05D0A06820F4605040F4DA
:102A7000E060A060A068A96820F0F0000843A060B2
:102A8000386800F00F00B04225D9386820F00F00F8
:102A900030433860FFF7D8FC8046386800F00F00FC
:102AA000B04218D0FFF7D0FCA0EB080050450DD97C
:102AB0000320BDE8F0870120BDE8F087B8F1800F62
:102AC00004BFA06820F0F000DAD1D8E7386800F041
:102AD0000F00B042E6D1287810F0040F05D0A068AE
:102AE000E96820F4E0600843A060287810F0080F3F
:102AF00006D0A068296920F4605040EAC100A060B7
:102B000000F052F8A1680C4AC1F30311515C01F0C6
:102B10001F01C8400949086009480068BDE8F0473E
:102B2000FFF7B0BC002002400010024000B4C40413
:102B30000024F40000366E01669600089C06002012
:102B4000900600200248016841F4002101607047AE
:102B50000010024001480068704700009C060020F9
:102B60000548064900688968054AC1F30221515C9D
:102B700001F01F01C84070479C0600200010024071
:102B8000769600080548064900688968054AC1F339
:102B9000C221515C01F01F01C84070479C06002013
:102BA00000100240769600081849886800F00C0270
:102BB0001748042A08BF70478A6802F00C03154AB8
:102BC000082B04BF104670478B684FF00C0C3CEA92
:102BD00003031CBF00207047CB6803F0030CCB68D5
:102BE000C3F303135B1CBCF1030F14BFB0FBF3F082
:102BF000B2FBF3F0CA68C968C2F306225043C1F3BE
:102C00004161491C4900B0FBF1F0704700100240DF
:102C10000024F40000366E01002804BF0120704734
:102C20002DE9F84305460078FF4F10F0010F55D00D
:102C3000B868F96800F00C0001F003010C2802D01C
:102C4000082820D001E003291DD06868B0F5803F36
:102C500022D0B0F5A02F38680CBF40F4802020F4BB
:102C60008030386038680CBF40F4803020F4802019
:102C70003860686800B3FFF7E7FB0446386810F473
:102C8000003F0ED02AE0386810F4003F26D0686874
:102C9000002800F0208221E0386840F4803038605D
:102CA000E7E7FFF7D1FB001B642800F28481386856
:102CB00010F4003FF5D011E0FFF7C6FB044638687A
:102CC00010F4003F0AD000BFFFF7BEFB001B6428D2
:102CD00000F27181386810F4003FF5D1287810F0C7
:102CE000020F58D0B86800F00C01F8680C2900F009
:102CF000030002D0042911D001E002280ED0E868B8
:102D00000028386833D040F480703860FFF79CFBAF
:102D10000446386810F4806F17D020E0386810F44B
:102D2000806F03D0E868002800F0D5817868297C9E
:102D300020F0FE4040EA01607860BC480068FFF780
:102D4000A1FB002840F0C78125E0FFF77DFB001BB9
:102D5000022800F23081386810F4806FF5D078686E
:102D6000297C20F0FE4040EA0160786013E020F406
:102D700080703860FFF768FB0446386810F4806F95
:102D800009D000BFFFF760FB001B02287ED838681F
:102D900010F4806FF6D1287810F0080F32D06869EF
:102DA0000028D7F8940016D040F00100C7F894002E
:102DB000FFF74AFB0446D7F8940010F0020F21D128
:102DC000FFF742FB001B022860D8D7F8940010F0F0
:102DD000020FF5D016E020F00100C7F89400FFF7CD
:102DE00033FB0446D7F8940010F0020F0AD000BF5E
:102DF000FFF72AFB001B022848D8D7F8940010F0F0
:102E0000020FF5D1287810F0040F78D0B86D4FF08C
:102E1000000810F0805F09D1B86D40F08050B865AF
:102E2000B86D4FF0010800F080500090804E30687F
:102E300010F4807F13D1306840F480703060FFF769
:102E400003FB0446306810F4807F08D1FFF7FCFADA
:102E5000001B02281AD8306810F4807FF6D0A868CA
:102E6000012821D00528D7F890000CBF40F00400BD
:102E700020F00100C7F89000D7F890000CBF40F098
:102E8000010020F00400C7F8900000E093E0A8687B
:102E900041F28836D0B1FFF7D7FA0446D7F8900050
:102EA00010F0020F07D023E0D7F8900040F00100A7
:102EB000C7F89000E9E7FFF7C7FA001BB0427AD8DD
:102EC000D7F8900010F0020FF5D011E0FFF7BCFA30
:102ED0000446D7F8900010F0020F09D0FFF7B4FABB
:102EE000001BB04267D8D7F8900010F0020FF5D160
:102EF000B8F1000F03D0B86D20F08050B865287885
:102F000010F0200F32D0A8690028D7F8980016D00A
:102F100040F00100C7F89800FFF796FA0446D7F88A
:102F2000980010F0020F21D1FFF78EFA001B022843
:102F300041D8D7F8980010F0020FF5D016E020F035
:102F40000100C7F89800FFF77FFA0446D7F8980009
:102F500010F0020F0AD000BFFFF776FA001B02281C
:102F600029D8D7F8980010F0020FF5D1E869E8B336
:102F7000B9683C460C2232EA01017BD00228206865
:102F800020F08070206019D0E06820F00300E0603D
:102F9000E06820F4881020F08070E060FFF754FAB9
:102FA0000546206810F0007F20D000BFFFF74CFAE4
:102FB000401B022859D90320BDE8F883FFF744FAE3
:102FC0000646206810F0007F09D000BFFFF73CFAEA
:102FD000801B0228EFD8206810F0007FF6D1D5E9D9
:102FE00008016FF00F0202EB011100E076E00843E8
:102FF000298E5204490802EB4151AA6A41EA022192
:10300000084395F834104FF07E42490802EB4161C5
:10301000084395F82C1040EAC160E168054A114068
:103020000843E060206807E000100240900600209E
:10303000007000400C809F0140F080702060E068CC
:1030400040F08070E060FFF7FFF90546206810F05F
:10305000007F43D1FFF7F8F9401B0228ABD8206866
:1030600010F0007FF6D039E004E0206810F0007F17
:103070009CD133E0012808BFBDE8F883E0682A6AE4
:1030800000F00301914226D1696A00F0F0020901C3
:10309000103991421FD1AA6A00F4FE41B1EB022F10
:1030A00019D195F82C2000F07841B1EBC26F12D104
:1030B000298E00F4C00249084905A1F5001191428A
:1030C00009D195F8341000F0C06049084906A1F113
:1030D0000071814202D00120BDE8F8830020BDE8E4
:1030E000F8837047411EB1F1807F24BF01207047F3
:1030F0004FF0E0204161054AF02182F8141D0021C3
:103100008161072101610020704700000FE000E0AD
:1031100010B5FFF7E6FF10BD90F83C20012A04BF70
:103120000220704730B4012280F83C20CA688B68C6
:1031300022F440721A434B6822F480621A430B68EF
:1031400022F400621A430B6922F480521A434B693D
:1031500022F400521A430B6B22F480421A430B8B69
:1031600022F4702242EA0342DFF860C00368184C80
:10317000634518BFA34204D1CD6922F0805242EAD0
:103180000502634518BFA34217D10D8D22F47002CA
:1031900042EA05520D6A22F0807242EA05024D6A47
:1031A00022F0007242EA0502634518BFA34204D12F
:1031B000C96A22F0005242EA01025A644FF000014B
:1031C00080F83C1030BC084670470000002C0140DD
:1031D000003401402DE9F00190F83C300026012B2D
:1031E0000DBF0220012380F83C30BDE8F00108BF8C
:1031F00070471368042B28D004DC012B18D0022B55
:103200001DD003E0082B26D0102B2BD04FF0000C44
:1032100063466546644601292AD0022918BF012663
:103220003BD0002180F83C103046BDE8F0017047EB
:1032300000254FF0010C4FF400730924EBE7012542
:10324000AB024FF0020C0A24E5E70225AB024FF077
:10325000040C0B24DFE703254FF0080C4FF48053D8
:103260000C24D8E70425EB024FF0100C0D24D2E714
:1032700001680F6ED2F8048027EA0C0708FA05F5FA
:10328000926805EA0C0C4CEA070CA2402CEA030CED
:103290001A4042EA0C020A66C3E701684F6ED2F890
:1032A000048027EA0C0708FA05F5926805EA0C0C79
:1032B0004CEA070CA2402CEA030C1A4042EA0C022A
:1032C0004A66AEE790F83C20012A04BF022070470E
:1032D000F0B44FF0010C80F83CC0022280F83D2091
:1032E0000268536894681B4D1B4EAA4218BFB24235
:1032F00004D14F6823F4700347EA030323F07003FB
:103300000F6823F0007347EA030353600268AA4280
:1033100018BFB2F1804F10D0A2F18043B3F58063A3
:103320001CBFA2F18043B3F5006306D0B2421CBFBC
:10333000A2F18043B3F5A03304D1896824F080035F
:103340001943916080F83DC0002180F83C10F0BC2A
:1033500008467047002C014000340140002804BF9B
:103360000120704710B5044690F83D0028B90020B0
:1033700084F83C00204600F023F8022084F83D0049
:10338000211D206804F0E8F9012084F8480084F841
:103390003E0084F83F0084F8400084F8410084F83F
:1033A000420084F8430084F8440084F8450084F81F
:1033B000460084F8470084F83D00002010BD00005E
:1033C00000B587B000210091019102910391049111
:1033D0000068A0F18041B1F596311CBF07B000BD77
:1033E0001048016E41F400610166016E01F4006154
:1033F0000591C16C41F00101C164C06C694600F0E7
:10340000010005904FF4006000901220019001200F
:1034100002900C2004904FF09040FEF71DFF07B083
:1034200000BD00000010024000B587B000210091EF
:1034300001910291039104910068A0F18041B1F5DE
:1034400096311CBF07B000BD0C48C16C41F00101B2
:10345000C164C06C694600F0010005904FF4E06063
:1034600000900220019002900390062004904FF0FB
:103470009040FEF7F1FE07B000BD000000100240D2
:103480002DE9F04F054690F83C0000260C46012837
:103490000DBF0220012085F83C00BDE8F08FDFF869
:1034A00030C3CC4FDFF83083CC49CD4B0C2A00F031
:1034B000C78005DC8AB1042A61D0082A74D005E0EF
:1034C000102A00F00A81142A00F04481012600200D
:1034D00085F83C003046BDE8F08F2868026A22F08B
:1034E00001020262026AD0F80490D0F818A0D4F861
:1034F00000B02AF0730A2AF4803A4BEA0A0AD4F898
:1035000008B022F002024BEA0202884218BF984239
:1035100004D060451CBFB842404507D1D4F80CB078
:1035200022F008024BEA020222F00402884218BF8D
:10353000984204D060451CBFB842404507D163693A
:1035400029F4407143EA0101A36943EA0109C0F883
:103550000490C0F818A0616841630262286881691C
:1035600041F0080181612868816921F004018161CD
:1035700028688169226941EA02018161A7E7214641
:10358000286804F043F92868816941F40061816189
:103590002868816921F480618161286881692269D4
:1035A00041EA0221E9E7FFE72868026A22F4807213
:1035B0000262026AD0F80490D0F81CA0D4F800B0DF
:1035C0002AF0730A2AF4803A4BEA0A0AD4F808B0BF
:1035D00022F4007242EA0B22884218BF984207D1B7
:1035E000D4F80CB022F4006242EA0B2222F480628A
:1035F000884218BF984204D060451CBFB84240457D
:1036000007D1636929F4405141EA0311A36941EAF2
:103610000319C0F80490C0F81CA06168C16302627D
:103620002868C16941F00801C1612868C16921F0B9
:103630000401C1612868C169226941EA02014AE0C6
:103640002868026A22F480520262026AD0F804906A
:10365000D0F81CA0D4F800B02AF4E64A2AF0807A08
:103660004AEA0B2AD4F808B022F4005242EA0B329C
:10367000884218BF984207D1D4F80CB022F4004217
:1036800042EA0B3222F48042884218BF984204D0AA
:1036900060451CBFB842404507D1636929F44041E9
:1036A00041EA8311A36941EA8319C0F80490C0F884
:1036B0001CA06168016402622868C16941F400616C
:1036C000C1612868C16921F48061C1612868C1694C
:1036D000226941EA0221C161F9E62868026A22F4FE
:1036E00080320262D0F820A04268D0F85090D4F81E
:1036F00000B029F0700929F480394BEA0909B4F8BF
:1037000008B02AF4003A4AEA0B4A884218BF9842A5
:1037100004D060451CBFB842404504D122F480313A
:10372000626941EA02224260C0F850906168816497
:10373000C0F820A02868016D41F0080101652868E3
:10374000016D21F0040101652868016D226941EADB
:1037500002013BE02868026A22F480120262D0F87B
:1037600020A04268D0F85090D4F800B029F4E04985
:1037700029F0807949EA0B29B4F808B02AF4001A34
:103780004AEA0B5A884218BF984204D060451CBFD1
:10379000B842404504D122F48021626941EA822284
:1037A0004260C0F850906168C164C0F820A02868E9
:1037B000016D41F4006101652868016D21F48061AB
:1037C00001652868016D226941EA022101657EE6F2
:1037D000004001400044014000480140002C0140ED
:1037E00000340140002804BF0120704710B5044692
:1037F00090F83D0028B9002084F83C00204600F0F5
:1038000022F8022084F83D00211D206803F0A4FF67
:10381000012084F8480084F83E0084F83F0084F8D2
:10382000400084F8410084F8420084F8430084F8A2
:10383000440084F8450084F8460084F8470084F882
:103840003D00002010BD704770B5044690F83C0064
:10385000012804BF022070BD012584F83C500220DD
:1038600084F83D00204604F019F801004FF00000F4
:1038700005D084F83D5084F83C00012070BD2168DB
:10388000CA6822F04002CA602168CA6822F48042F5
:10389000CA6084F83D5084F83C00002070BD90F868
:1038A0008010012904BF02207047012180F8801098
:1038B0002421C0F8841001680A680B6823F0010312
:1038C0000B6022F00051002242660368196020213B
:1038D000C0F8841080F880201046704790F880204F
:1038E000012A04BF0220704730B4012280F88020F2
:1038F0002423C0F884300368D3F800C01C6824F087
:1039000001041C6003689C6824F060642143996092
:10391000416E002908BFA0F86A2014D0026891689F
:103920009268C1F342610F4B520F9C5CE50003F1BA
:103930000804A25CB5FBF2F5A0F86A505A5C615C21
:10394000D200B2FBF1F2A0F868200168C1F800C013
:103950002021C0F88410002180F8801030BC084677
:10396000704700005696000890F88020012A04BF96
:103970000220704730B4012280F880202423C0F850
:1039800084300368D3F800C01C6824F001041C6074
:1039900003689C6824F0604421439960416E0029CB
:1039A00008BFA0F86A2014D0026891689268C1F339
:1039B00042610F4B520F9C5CE50003F10804A25CCE
:1039C000B5FBF2F5A0F86A505A5C615CD200B2FB1C
:1039D000F1F2A0F868200168C1F800C02021C0F809
:1039E0008410002180F8801030BC08467047000029
:1039F00056960008002804BF0120704710B5044601
:103A0000D0F8840028B9002084F88000204600F017
:103A100029F82420C4F884002068016821F00101FD
:103A20000160204604F068FB012808BF10BDA06AB1
:103A300000281CBF204604F0BFFA2068416821F42A
:103A4000904141602068816821F02A0181602068EE
:103A5000016841F0010101602046BDE8104004F01A
:103A600018BB0000F0B597B00024064611941294DC
:103A700013941494442168461594FCF75EFD306855
:103A8000A0F18041B1F588411CBF17B0F0BD0225FF
:103A9000684600950294FEF7EFFD002818BFFDF779
:103AA000D5F92548816D41F400318165816D01F4BE
:103AB00000311691C16C41F00101C164C06CCDE9C7
:103AC000125400F0010016900C2011900720CDE94F
:103AD000144011A94FF09040FEF7BEFB184D174857
:103AE000802728601A20C5E90104C5E903476C61F5
:103AF000AC61EC6128462C62FEF706FB002818BF7B
:103B0000FDF7A4F9F567AE620F4D0E4828601B2043
:103B100068601020C5E90204C5E90474AC61EC6179
:103B200028462C62FEF7F0FA002818BFFDF78EF940
:103B3000B567AE6217B0F0BD001002401C04024031
:103B40009408002030040240F408002003F04CFFE9
:103B5000FEE70000012908BF002124D0042908BF86
:103B6000012120D0102908BF02211CD0402908BF04
:103B7000032118D0B1F5807F08BF042113D0B1F51F
:103B8000806F08BF05210ED0B1F5805F08BF062108
:103B900009D0B1F5804F08BF072104D0B1F5803FAF
:103BA0000CBF08210921064A1830525C10440268F3
:103BB000044B595C082303FA01F11143016070477B
:103BC0007E96000888960008012908BF002124D0AD
:103BD000042908BF012120D0102908BF02211CD0D0
:103BE000402908BF032118D0B1F5807F08BF042108
:103BF00013D0B1F5806F08BF05210ED0B1F5805FFD
:103C000008BF062109D0B1F5804F08BF072104D0B5
:103C1000B1F5803F0CBF08210921084B18305B5CCF
:103C20001844D0F800C0064B595C064B8B402CEA78
:103C3000030302FA01F11943016070477E96000800
:103C4000889600087300010010B50446006803F070
:103C5000D6FA6168086110BD10B50446807F01285E
:103C600018BF10BD217B0020012904D0022910D0EB
:103C700003291ED026E0616881F824000121206814
:103C800003F0E0FAE28AB4F90E10206803F069FA52
:103C90000CE0616881F824000021206803F0D2FA6A
:103CA000E28AB4F91010206803F05BFA50B10220E8
:103CB00009E06168012081F824006068D4F81210DE
:103CC0000161F4E70320A07710BD01230373C181D4
:103CD000C2828377C3777047022303730182C28253
:103CE000012181770021C177704710B5044600F0AB
:103CF0005CF80B2803D1204600F01CF808B1002026
:103D000010BD0020A08302202076012010BD438B2F
:103D10000B4323EA02024283828B11438183704763
:103D200010B5006803F079FABDE8104003F0A6B9B9
:103D3000C07F7047408B7047818B408B41EA0040C9
:103D40007047406800687047406840687047027B71
:103D50000121012A04D0022A07D0032A0AD00FE049
:103D6000B0F90E0000280BDA08E0B0F910000028C6
:103D700006DA03E0B0F91200002801DA4FF0FF3153
:103D8000084670474068C0687047406800697047DF
:103D9000C08A7047B0F90E007047B0F91000704744
:103DA000006803F034BA808B7047407E70474068EB
:103DB000B0F91E0070474068D0F81A00704740689C
:103DC000D0F8160070478360C0E90012002101732B
:103DD000C1810182C18281770176417641838183ED
:103DE0007047032202734182091481820121817785
:103DF0000021C177704710B50446FFF7D6FF38B9E8
:103E00002046FFF7D0FF18B92046FFF793FF08B10F
:103E1000002010BD01202076A07710BD70B50546AA
:103E2000FFF7C3FF002816BF0C28002401242846F2
:103E3000FFF7B9FF40B92846FFF77CFF20B91CB156
:103E400005202876012070BD002070BD006803F0B9
:103E5000FFB90000014661F30F0044F6E61211FBC2
:103E600002F244F6E61311FB23F10A4411444942DD
:103E7000C913B1F5004FA8BF47F6FF7104DA11F579
:103E8000004FB4BF054909B261F31F4011F5004F5F
:103E900004BF48F2010161F31F4070470080FFFF3B
:103EA00070B50546084600F069F82AB203B212FB65
:103EB00003F14FEA254C05141CFB05F0081AC0134A
:103EC0001649B0F5004FA8BF47F6FF7004DA10F5A9
:103ED000004FB4BF084600B260F30F04104E10F557
:103EE000004F08BF66F30F0412FB05F01CFB03F242
:103EF0001044C013B0F5004FA8BF47F6FF7103DAB6
:103F000010F5004FA8BF01B2204661F31F4011F524
:103F1000004F08BF66F31F4070BD00000080FFFF28
:103F20000180FFFF10B50446084600F027F814FB97
:103F300000F12214031412FB03FC61444FEAE13C3C
:103F400029466CF30F0114FB03F312FB00F0C01AB7
:103F5000C01360F31F41084610BD00000028DCBFFD
:103F60000020704772B640F2691203490A60486047
:103F70008868C00B62B67047000C024005494FF0DC
:103F800060120A6000F1FE4000F57F00486088681A
:103F900070470000000C02402DE9F05F4FF0000A6E
:103FA000B1F8009004465646D046B9F1000F3FD014
:103FB0002068C089484538D3887884F82100CA78B9
:103FC00084F82320087984F82500487984F82700AC
:103FD0008F1DA17F1044884288BF4FF00A0A4FD836
:103FE000002500281ED900BF6068B7F800B000EBBC
:103FF0008501584601F07EFF94F82300A84296BF41
:104000005846022001F066FFE168BF1C4855304465
:1040100086B2681CC5B294F8230094F827100844AF
:10402000A842E1D8B01D484515D94FF0090A27E04C
:1040300084F82980208BD8B16169084494F82A104B
:104040000180208B6169801C82B220680923D0F82E
:1040500004C0E0470CE0A9EB0600801E60833878BE
:1040600084F8290060B984F82980208B0028E3D1E6
:10407000A4F8188084F82A8084F81F8084F82280AD
:104080005046BDE8F09F000070B50446C07F94F82C
:10409000221088421EBF401CE07770BD0025E577E6
:1040A000208B00283AD12068092204F1140103680A
:1040B000984780B35C4960690968016004202083E7
:1040C00084F8205094F8290094F82A10884225D0CA
:1040D00084F82A0094F8231084F8241094F8270018
:1040E00084F8280094F8212084F8222094F82520D0
:1040F00084F82620628BA28308448200D4E9011050
:10410000FCF7E9F994F8230094F827104218D4E951
:104110000310FCF79BF9208B002848D0208BA18B43
:10412000884244D86169084494F82410002918BFD3
:1041300000220CD0A36853F8223002F101021B8840
:1041400020F8023B238B9B1C2383491EF2D194F859
:104150002610FE292BD294F8200088421CBF401C58
:1041600084F8200023D184F8205094F8240094F897
:1041700028100A1882421AD90021121A5FFA82F214
:10418000B4F818C06369A668634400EB010C491CCD
:1041900056F82C60521E12F0FF0236681E6023692A
:1041A00013F80C30B4F818C063442383E8D1208B93
:1041B000A18B884298BF70BD94F82600FE2821D1BB
:1041C00094F8240094F828100A1882421AD9002181
:1041D000121AD2B2B4F818C06369A6689C44431896
:1041E000491C56F82360521E12F0FF023668CCF8C4
:1041F0000060D4F810C01CF80330B4F818C0634451
:104200002383E7D1218B6069084494F82A10018048
:10421000208B6169801C82B220680923D0F804C019
:10422000E047258370BD0000A006002070B504465D
:10423000008B002808BF70BD94F82600FE2821D10D
:1042400094F8240094F828100A1882421AD9002100
:10425000121AD2B2B4F818C06369A5689C44431816
:10426000491C55F82350521E12F0FF022D68CCF85D
:104270000050D4F810C01CF80330B4F818C06344E0
:104280002383E7D1218B6069084494F82A100180C8
:10429000208B6169801C82B220680923D0F804C099
:1042A000E0470020208370BDF8B541680446002334
:1042B0000A8822F0070000F47F4CBCF5807F04BF21
:1042C000C0F3C4034FF48070521EDFF8F8C002F050
:1042D00007020CEB4215A289891C921E1FFA82FC70
:1042E000A4F80CC06160226800269289E681521E03
:1042F00012B230284AD00DDC18284FD005DC60B34C
:10430000082830D0102833D00DE0202842D02828AB
:1043100033D008E0582813D00DDC382844D0482882
:1043200048D050280CD00220E289A1688854E08946
:10433000401CE081F8BD602818BFB0F5807FF2D145
:10434000022B3CD2204850F8235095B3A06800902F
:1043500004F10E036046A847E6E70420E081A16867
:104360000120087023E091B2204602F02DFADBE72D
:1043700091B2204601F034FED6E72846FFF715FD3E
:10438000062804BF2846FFF761FD10E02846FFF726
:104390000CFD18B12846FFF741FD08E02846FFF75D
:1043A0002AFD80F00100BFE72846FFF79EFC0020B1
:1043B000BAE704E02846FFF747FC0020B4E70D20E9
:1043C000B2E70000600900204806002001480068AC
:1043D000FFF7EBBC0000002005480078002808BF6C
:1043E000704710B500F006F803F072FD10BD000034
:1043F0005006002070B51A4D2878012818BF70BDEE
:104400006888002818BF401E1BD103F0C5FB154C5F
:1044100004F10C01206882689047606080B12068D8
:104420000A2204F108010368984748B12046FFF7C3
:104430003BFF2068E289A168D0F804C00A23E04766
:1044400001206880A88810B1A888401EA880E8884C
:10445000002808BF70BDE888401EE88070BD0000DD
:10446000500600200C06002001480068FFF7C3BC7E
:104470000000002001480068FFF7D0BC00000020C9
:10448000002808BF70472DE9F843DFF8D4800646BE
:10449000002088F8000008F10C01324808600F1F66
:1044A0003148386000F092FD3048FCF740FC04F0E1
:1044B000C1FD2F4800F028F92E4803F073F82E4C68
:1044C0002C4A2B49206802F0ADFE2C4804F0B7F9C5
:1044D000386800902A4B294A2A48216802F02FFDAB
:1044E000294800F011F9294800F00EF9284802F097
:1044F000BAFD28482649284D0068C0E9435127489D
:1045000000F0D3F807F108012548086001F0D3FC5A
:104510000020FCF7B7FC4FF0010985F824902068D3
:1045200002F06DFE2861206802F069FE0014A88286
:104530003B682A461B482168FFF745FC206802F0CB
:1045400069FE014600221748FFF7BFFB154830609F
:104550001548FCF747FC88F80090BDE8F883000098
:1045600050060020BC0400204802002098050020CE
:10457000180100201803002070050020E002002030
:1045800040040020D00100204401002070010020E0
:104590007C04002080050020F81B0020540400202B
:1045A000A404002060090020681C0020B0F800313D
:1045B000002220F81310B0F80031A0F802315B1C83
:1045C0009BB2A0F80031802B24BF0023A0F800315B
:1045D0005FF0000330F913C05B1C9BB26244802B78
:1045E000F8D3D31702EB5362D211A0F80421084686
:1045F000704700210A4620F81120491C89B2802901
:10460000F9D3A0F80021A0F802217047B0F9040105
:104610007047000010B5FEF79DFA4FF4FA61B0FB49
:10462000F1F0FEF75FFD064800220168501EFDF71D
:1046300077FF0448FFF724FFBDE8104004F082BC78
:10464000900600200000002010B5044600780028E5
:1046500018BF002012D194F8260001F049FAA0F505
:104660007F41FF3907D0218B238A4A1E03FB0200BA
:10467000B0FBF1F02082204600F029F8E08280B201
:1046800010BD0021018270470178002918BF808A7F
:1046900001D000B27047018A026A891AB0F91E205F
:1046A000808C514300EB2140F3E710B504460078BD
:1046B00020B10020E082608A208210BD201D01F020
:1046C0000BFB84F826002046FFF7DBFF10BD018AB4
:1046D000428B914284BF08207047828B8A428CBFF4
:1046E0000020C08A7047B0F922007047C08C704724
:1046F000B0F906007047408B7047C08B7047B0F927
:1047000004007047808B7047018881804188C18098
:10471000018C418400218160816270478160704713
:1047200041847047C184012202FA01F181847047FB
:10473000C180704770B50546012000FA01F4E98395
:104740006C83C4EBC431284600F010F8A4EBC431EC
:10475000284600F009F870BD8180704781830122EE
:1047600002FA01F10183704701617047C16070472F
:1047700070B4B0F90420002402FB01F6B0F9062061
:10478000B0F914C0B0F91630002A04BF00218160CE
:1047900014D085684A43A91805D5002DC4BF002A46
:1047A0006FF0004103E0002DBCBF002A0F49C26832
:1047B0008A42A5BF0269914282608160827F8168DE
:1047C000057F41FA02F246FA05F52A446245C4BF64
:1047D000ACEB0204624603DC9342C4BF9C1A1A4647
:1047E0002144816070BC10B270470000010000805D
:1047F00070B5D0F80C110446C868D1F8161010FB3B
:1048000001F210FB3121C81701EB10400514D4F858
:10481000100103F067FFD4F8081148434FF41671F4
:1048200090FBF1F0684300EB40000849400081FB39
:1048300000108110A1EBE071C81701EB10400114CA
:104840002046BDE87040FFF7B1BE000067666666AF
:10485000C169084770B50446002511B1012908D087
:1048600017E000F021F9B4F86600A4F8520080B90E
:104870000BE0B4F85200002808BF012509D0401E03
:104880000004000CA4F8520003D121692046884797
:104890000125284670BD4268104730B4B0F840305A
:1048A0000AB253430A14B0F864104A435200524209
:1048B00002EB030CA2EB03030CEBDC7C03EBD373E6
:1048C0005FEA6C0C4FEA63034FEA910156D5002B67
:1048D00019DA042280F87020ACEB0302D41702EB43
:1048E000943201EBA241DA1703EBD23201EB6243BF
:1048F0004FEAEC720CEBD232A1EB624CA0F84AC04A
:10490000A0F84C1071E0002A1CDC4FF0030C80F87A
:1049100070C0A2EB030C4FEAEC740CEB943C01EB7F
:10492000AC414FEAE37C03EBDC334FEAE27C01EB82
:10493000634302EBDC32A3EB624CA0F84AC0A0F860
:104940004C3018E0022380F87030ACEB0203DC1727
:1049500003EB943301EBA3414FEAEC730CEBD3333D
:10496000A1EB634CD31702EBD3320CEB6243A0F8FC
:104970004A30A0F84CC0A0F84E1057E0002B19DBCD
:10498000012280F87020ACEB0302D41702EB9432C2
:1049900001EBA241DA1703EBD23201EB62434FEA9B
:1049A000EC720CEBD232A0F84A30A1EB624CA0F8CA
:1049B0004C1039E0002A1BDC052380F87030ACEB8A
:1049C0000203DC1703EB943301EBA3414FEAEC73D2
:1049D0000CEBD333A1EB634CD31702EBD332A0F82B
:1049E0004A100CEB6243A0F84CC0A0F84E301DE01A
:1049F0004FF0000C80F870C0A2EB030C4FEAEC748F
:104A00000CEB943C01EBAC414FEAE37C03EBDC3371
:104A100001EB63434FEAE27C02EBDC32A0F84A1080
:104A2000A3EB624CA0F84C30A0F84EC00029D8BFD0
:104A3000002189B2A0F84210002BD8BF00239AB2FF
:104A4000A0F84420BCF1000FD8BF4FF0000C1FFAB3
:104A50008CF3A0F84630B0F862C0BCF1010F02D070
:104A6000816930BC0847B0F954C0BCF1000FB0F800
:104A700068C0CCBF6144A1EB0C01A0F84210B0F9B2
:104A8000561000291FFA8CF1CCBF1144511AA0F81E
:104A90004410B0F9581000291FFA8CF1CCBF19440A
:104AA000591AA0F84610DBE781680847C168084733
:104AB000816882B021F03F0121F02041816081684E
:104AC000C1F3007149BB816821F03F0121F0004131
:104AD00041F0805181603249324A0968B1FBF2F1FC
:104AE00049000191009118D0B1F1004F52D2002934
:104AF000D8BF002105DD11F0010102D0019A521E3C
:104B00000192009A491C521C914206DA019B891CB1
:104B10005B1E5B1E01939142F8DB816821F03F012F
:104B200021F0404141F0004181608168C90FFCD112
:104B3000016811F0010F0BD1816821F03F0121F0D4
:104B4000004141F001018160016811F0010FF3D0D3
:104B5000816821F03F0121F0004141F008018160AE
:104B6000816821F03F0121F0004141F02001816086
:104B7000C16821F4001121F0004141F40011C1602D
:104B8000816821F03F0121F0004141F00401816082
:104B900002B070470199491E0191FCD1BDE70000A8
:104BA0009C060020400D0300002808BF704790F8C5
:104BB0008C10A9B9D0F8901091F8C020022A0FD11A
:104BC0000A6AB1F8AC109162D0F89020516AB2F83C
:104BD000AE208A62D0F890108A6AB1F8B010916263
:104BE000012180F88A106E307047002808BF704796
:104BF000D0F8901089684A6C42F480624A640121BE
:104C000080F88B1080F88C106E3070472DE9F043DF
:104C10000446D0F8900094F874100026D0E901758D
:104C2000D0F80080802083B04FF0040901297CD0A7
:104C300061680091A1690191A667E667C4F8806088
:104C400084F88860296A21F0550121F4A061296265
:104C50005E4961605E49A161A4F8860084F889908C
:104C600084F87090204600F016FE5A4869680140AA
:104C70007029FBD1D8F8080020F03F0020F0004058
:104C800040F00800C8F80800B86820F03F0020F0A5
:104C9000004040F00800B860D4F8900004F18803A8
:104CA00004F1480190F8C120284604F0F9F92046A3
:104CB00000F0B5FD84F888604748606084F889603A
:104CC00084F87060204600F0E6FDD4F8900004F10E
:104CD000880304F1480190F8C120284604F0E0F967
:104CE000204600F09CFDA06F3C490009A067E06FE2
:104CF0000009E067D4F880000009C4F880000120B2
:104D000084F87400009860600198A0610A7805F149
:104D1000180002EB000CDCF8007001F10A02082315
:104D200092F8008003FA08F800E03AE027EA080762
:104D3000CCF8007091F802C08444DCF8007092F85E
:104D4000028003FA08F827EA0807CCF8007009790E
:104D500008440168127903FA02F291430160B4F841
:104D600084006863B4F88400A863B4F88400E8633E
:104D700001212846FEF7EEFE10212846FEF7EAFE46
:104D80004FF480712846FEF7E5FE296A40F255503F
:104D90000843286284F8709084F88C6003B0BDE802
:104DA000F083D8F8081021F03F0121F0004141F0D4
:104DB0000801C8F80810B96821F03F0121F000414E
:104DC00041F00801B960A4F88600E3E7194F000834
:104DD0004956000870000002794F00087E960008CE
:104DE000826F0A60C26F4A60D0F8800088607047A6
:104DF000002908BF704770B490F870C0D0F89030A8
:104E00004C2404EB8C049A681C592568642404EB38
:104E10008C041B591C68536823F0700323F0007343
:104E200053603C4A530CBCF1060F64D2DFE80CF02F
:104E30001D404003031DD0F878C0ACEB050C1CF5F9
:104E4000004FD8BF0A8005DDBCF5004FACBF0B801A
:104E5000A1F800C0D0F87CC0ACEB040C1CF5004FEE
:104E600045DDBCF5004F3DDA43E0D0F87CC0ACEB4B
:104E7000050C1CF5004FD8BF4A8005DDBCF5004F7E
:104E8000ACBF4B80A1F802C0D0F880C0A4EB0C0CE2
:104E9000B1F90240ACEB040CBCF5004FA8BF0B808D
:104EA00029DA1CF5004FD4BF0A80A1F800C022E027
:104EB000D0F878C0ACEB050C1CF5004FD8BF0A80C9
:104EC00005DDBCF5004FACBF0B80A1F800C0D0F8E9
:104ED00080C0A4EB0C0CB1F90040ACEB040CBCF5A9
:104EE000004F01DB4B8006E01CF5004F01DC4A80DF
:104EF00001E0A1F802C00A88A0F854204A88A0F86E
:104F000056200A88498811444942A0F8581070BCBC
:104F1000704700000180FFFF002908BF704730B4D0
:104F200090F88940D0F890204FF04C0C0CEB840C9A
:104F3000936852F80CC0DCF800C0642505EB8404CB
:104F4000125912685C6824F0700424F000745C60EC
:104F500090F88830102B0AD2836F63448367C36F45
:104F60001A44C26790F88820521C80F888200020DC
:104F70000880488030BC7047002908BF704710B4D3
:104F8000D0F8903090F889C0642404EB8C0C9A68B7
:104F900053F80C301B68D2F804C02CF0700C2CF0C5
:104FA000007CC2F804C090F88820102A09D2D0F8FA
:104FB00080201A44C0F8802090F88820521C80F885
:104FC000882000200880488010BC7047002808BF57
:104FD00070472DE9F04F0546D0F890008DB0D0E92C
:104FE0000B13D0E9032AD0E90687D0F81490009378
:104FF000436B0293836B0193D0E9004B8668606832
:1050000020F00400606004202060636823F0200327
:10501000636020232360DBF804C02CF0040CCBF881
:1050200004C0CBF80000DBF8040020F02000CBF82F
:105030000400CBF800308E48A6F18043B3F59633D8
:1050400003690CBF43F4006343F4005303618AB166
:10505000106818B1036843F001030360506818B189
:10506000036843F001030360906818B1026842F0DE
:1050700001020260BAF1000F18D0D5F8900090F844
:10508000C320012A18BF002904D0B0F8BC20C06B8F
:1050900000F03CFBDAF8000040F00100CAF8000024
:1050A000DAF8000040F00040CAF80000B9F1000F43
:1050B00019D0D5F8900090F8C41001291CBF0099B0
:1050C000002904D0B0F8BC20006C00F01FFBD9F818
:1050D000000040F00100C9F80000D9F8000040F0DD
:1050E0000040C9F80000B8F1000F19D0D5F89000C1
:1050F00090F8C51001291CBF0299002904D0B0F80E
:10510000BC20406C00F002FBD8F8000040F0010029
:10511000C8F80000D8F8000040F00040C8F80000CF
:10512000AFB1D5F8900090F8C61001291CBF0199C5
:10513000002904D0B0F8BE20806C00F0E7FA38688F
:1051400040F001003860386840F000403860A068E6
:1051500010F0010F08D12046FFF7AAFC4020206084
:10516000606840F040006060DBF8080010F0010F5C
:1051700004BF5846FFF79CFC34464FF47A70029007
:10518000306820F001003060706820F0700020F07E
:105190000070706001213046FEF7DCFC10212046D3
:1051A000FEF7D8FC4FF480712046FEF7D3FC4FF495
:1051B00080512046FEF7CEFC606940F0010060613E
:1051C000D5F8900090F8C710022903D095F86E101A
:1051D00099B126E090F8C810012904BF90F8C100E9
:1051E000032811D14FF001002063606940F00100F5
:1051F00060614FF00300206306E090F8C1000128D1
:1052000002D0032805D00CE0B5F88400401E60628F
:1052100007E001202063606940F001006061032025
:1052200020636FF080002061D5F8900090F8C200F4
:1052300088B120696FF48072C0F3002006E022611B
:105240000298401E02902069C0F3002002990029B4
:1052500018BF0028F3D1E06840F08000E060216AC8
:1052600040F2555041EA000020620DB0BDE8F08FD9
:10527000002004E0002190F88B300A46012B04BF87
:10528000022180F88B2090F88A30012B04BF41F076
:10529000400180F88A2008467047000070B5054636
:1052A000D0F89000846895F87300012818BF70BD8D
:1052B000602201212046FEF787FC206A40F00100B1
:1052C0002062D5F8900090F8C000012804BF206A41
:1052D00040F0040005D0022804BF206A20F004003A
:1052E00000D12062B5F8840040086063602210217C
:1052F0002046FEF769FC206A40F010002062D5F8D5
:10530000900090F8C000012804BF206A40F04000DF
:1053100005D0022804BF206A20F0400000D120629E
:10532000B5F884004008A06360224FF480712046E5
:10533000FEF74AFC206A40F480702062D5F89000A5
:1053400090F8C000012804BF206A40F4806005D0B6
:10535000022804BF206A20F4806000D12062B5F8E2
:1053600084004008E06306486860064868610648B3
:10537000E8600648A860002085F8730070BD000052
:10538000F14D0008F7590008975800081F58000809
:1053900070B50546D0F89000846895F87300002831
:1053A00041D1602201212046FEF70EFC206A40F028
:1053B00001002062206A20F0040020620020606367
:1053C000D5F8900090F8C000012802D002280DD036
:1053D00019E0102211462046FEF7F6FB206A20F065
:1053E00010002062206A40F040000BE020221021D3
:1053F0002046FEF7E9FB206A40F010002062206A98
:1054000020F04000206270224FF480712046FEF7A9
:10541000DBFB206A20F480702062206A20F4806028
:105420002062E86FA8670648686006486861064819
:10543000E8600648A860012085F8730070BD000090
:10544000D1540008F3550008215500081F580008E2
:10545000002808BF704770B50446D0F8900070224D
:105460008568012084F89400B4F884004843000C57
:10547000A4F842004FF480512846FEF7A5FBB4F88B
:105480008400B4F86A10401A2864B4F86C00E86329
:10549000B4F842006863686820F0700020F0007083
:1054A00040F070006860032084F870006868074965
:1054B000084018BF0120B4F84810012918BF70BD7A
:1054C00001200021A4F8481070BD00007000000207
:1054D000002908BF7047D0F890209268536823F0E5
:1054E000700323F00073536090F870304FF0640C39
:1054F000D0F890200CEB8303D2581268C06F801A4A
:10550000064A9042D8BF104605DD47F6FF7290422A
:10551000A8BF47F6FF700880488070470180FFFFF2
:10552000002808BF704710B4D0F89020D2E901C11C
:105530001368012280F89420D41E0C610A6912F0CD
:10554000010FFBD00C6101224A63B0F88420521F86
:105550000A640A6912F0010FFBD0CA6842F0010226
:10556000CA604A6C42F480624A644A6C42F4004267
:105570004A64D0F8902092F8C040022C22D1096AE7
:1055800040F255542142116AB2F8AC200DD08A6124
:10559000D0F89020516AB2F8AE208A61D0F89020FD
:1055A000916AB2F8B0208A620CE08A62D0F890204A
:1055B000516AB2F8AE208A62D0F89020916AB2F8AF
:1055C000B0208A62032180F87010986820F03F00B4
:1055D00020F0004040F008009860DCF8080020F05F
:1055E0003F0020F0004040F00800CCF8080010BC5C
:1055F0007047D0F890100122896880F8942000222A
:105600004A63921E0A610A6912F0010FFBD04A6CCC
:1056100042F400424A64D0F8901091F8C020022A67
:1056200018BF70470A6AB1F8AC109161D0F89020A9
:10563000516AB2F8AE208A62D0F89010886AB1F848
:10564000B01081627047000090F8891080F87010E7
:10565000B0F88410B0F84230491E8AB2D0F89010E9
:1056600089684B63B0F844308B63B0F84600C86378
:105670000A6448680249084018BF012070470000CA
:1056800070000002002808BF704730B4D0F8904086
:10569000B0F88420B0F84A10B4F8B2C0531A9BB2E4
:1056A000634506D9042180F8701091B2491E89B271
:1056B00018E0B0F84C504D1BADB2B5EB430F84BFB2
:1056C000B4F8B620891A0CD8614489B2914209D342
:1056D0004FF48072A0F88620B0F88420C1EB42011C
:1056E000491E89B2A268B0F842305363B0F8443022
:1056F0009363B0F84600D0631164506802490840D3
:1057000018BF012030BC704770000002C0F3035383
:1057100001EB830382B0D3F808C06FF30F1C4CEA8F
:1057200002029A604A6800F003031A434A6000F0DC
:105730001002012090400A68324B30EA020C304AD5
:105740002AD0D1F800C04CEA000008601068B0FB15
:10575000F3F0C0000190009004BF02B07047B0F1B8
:10576000004F40D20028D8BF002005DD10F0010016
:1057700002D00199491E01910099401C4A1C904297
:10578000A4BF02B070470199801C491E491E0191B7
:105790009042F8DB02B070471068B0FBF3F010EBFA
:1057A00040000190009004BF02B07047B0F1004F7C
:1057B0001FD20028D8BF002005DD10F0010002D064
:1057C0000199491E01910099401C4A1C9042A4BFB6
:1057D00002B070470199801C491E491E01919042F8
:1057E000F8DB02B070470198401E0190FCD102B076
:1057F00070470198401E0190FCD102B07047000034
:105800009C06002080841E000A6882674A68C2677E
:105810008968C0F88010012180F874107047D0F8B2
:1058200090108968CA6822F00102CA60002380F8DB
:1058300071304A6C22F400424A6490F88C20012AAC
:105840001CD0D0F8902092F8C0C0BCF1020F15D146
:10585000D2F820C0B2F8AC20CCF82820D0F890C004
:10586000DCF82420BCF8AEC0C2F828C0D0F890C044
:10587000DCF82820BCF8B0C0C2F828C06FF0010CDA
:10588000C1F810C00A6912F0010FFBD0C1F810C0B6
:1058900080F89430704710B4D0F8901001228968D5
:1058A00080F89420002280F87120B0F884205208FB
:1058B0004A63B0F8842052088A63B0F88420520802
:1058C000CA63B0F88420521F0A646FF001030B61B1
:1058D0000A6912F0010FFBD00B614A6C42F480623E
:1058E0004A644A6C42F400424A64D0F8902092F82C
:1058F000C0C0BCF1020F2BD1D1F820C040F25554EA
:105900001CEA040FD2F820C0B2F8AC2010D0CCF8BA
:105910001820D0F890C0DCF82420BCF8AEC0C2F843
:1059200018C0D0F89020906AB2F8B02082610FE0E1
:10593000CCF82820D0F890C0DCF82420BCF8AEC009
:10594000C2F828C0D0F89000826AB0F8B000906227
:105950000B61C86840F00100C86010BC70470028A7
:1059600008BF704770B4D0F89010D1E90034D1E985
:1059700002C1D1B1DA6C002AFCD190F8702001EBA1
:105980008205EA682AB1ED6B166826F486763543FF
:10599000156090F8702001EB8202516A29B1526DB6
:1059A0000D6825F486752A430A6090F870207C25DE
:1059B000D0F8901005EB8202895830F8862F1143F9
:1059C000D96410F8162CD0F80A10942303EB820245
:1059D000895802881143E164DCF8041021F0700159
:1059E00021F0007141F07001CCF80410802120F802
:1059F000181970BC7047D0F8901001226FF00103A5
:105A0000896880F87120D0F8902092681361002294
:105A10004A638A63CA630A6912F0010FFBD04A6CB9
:105A200042F400424A64D0F8901091F8C020022A53
:105A300018BF70470A6AB1F8AC109161D0F8902095
:105A4000516AB2F8AE208A61D0F89000816AB0F84D
:105A5000B000886170470000F0B42148214D037800
:105A600003EB430415F8140001281CBFF0BC704779
:105A70001D4A042152F823000068016052F82310E7
:105A80004FF0010C0868097909290CFA01F646EA79
:105A9000816601EB410198BF46EA015105D9134FD8
:105AA00007EB0151314341F00071066BC1F3846192
:105AB00026F4F86646EA8111016352F82300006873
:105AC000016C816821F03F0121F0004141F00401A7
:105AD000816005EB440080F801C0F0BC7047000015
